:020000041000EA
:1000000000B5324B212058609868022188439860DF
:10001000D860186158612E4B002199600221596106
:100020000121F02299502B49196001219960352056
:1000300000F044F80222904214D00621196600F024
:1000400034F8196E01211966002018661A6600F04E
:100050002CF8196E196E196E052000F02FF8012189
:100060000842F9D1002199601B49196000215960AB
:100070001A491B48016001219960EB211966A021F2
:10008000196600F012F800219960164914480160C1
:100090000121996001BC002800D000471248134993
:1000A000086003C880F30888084703B5996A0420EC
:1000B0000142FBD001200142F8D103BD02B5186610
:1000C0001866FFF7F2FF186E186E02BD00000240BE
:1000D000000000180000070000035F00212200005C
:1000E000F4000018222000A00001001008ED00E03C
:1000F00000000000000000000000000074B24E7A12
:1001000000200420F7010010C3010010C5010010F9
:10011000C1010010C1010010C1010010C101001097
:10012000C1010010C1010010C1010010C701001081
:10013000C1010010C1010010C9010010CB01001065
:10014000CD010010CD010010CD010010CD01001037
:10015000CD010010CD010010CD010010CD01001027
:10016000CD010010CD010010CD010010CD01001017
:10017000CD010010CD010010CD010010CD01001007
:10018000CD010010CD010010CD010010CD010010F7
:10019000CD010010CD010010CD010010CD010010E7
:1001A000CD010010CD010010CD010010CD010010D7
:1001B000CD010010CD010010CD010010CD010010C7
:1001C00000BE00BE00BE00BE00BE00BEEFF3058054
:1001D000103800BEF2EB8871F028101020291010A2
:1001E0003802001090A31AE71E481F49086006C88D
:1001F00081F3088810471D480068002801D019487D
:10020000F3E70DA40ECC002902D000F012F8F9E7B4
:100210001749184A002000E001C19142FCD116495B
:100220008847164988471649884700BEFDE701C937
:1002300001C29A42FBD3704720291010C000002051
:1002400090590020F08110100000042000000420CC
:10025000F0811010001004200010042000000000A5
:10026000704700000000000008ED00E0000000D032
:1002700090590020006D0220C9320310450400107F
:1002800089320310F8B5C04606480749091A8B1091
:10029000C90FC91810B5491003D0044B002B00D06A
:1002A000984710BD90590020905900200000000090
:1002B000054B10B5002B03D00449054800E000BFF2
:1002C000FFF7E2FF10BDC04600000000D46B002025
:1002D000F4CF0310F0B5DE46454657464E46E0B52E
:1002E00091B03022002104A831F07CFB444833F067
:1002F000A3F9444BC82204930123434C434DD2023B
:1003000043490592200004AA06932B6001F044F9AA
:1003100002232B603F4BE01800F004F903233E4812
:100320002B6033F089F93D4B9B463D4B00933D4B91
:100330009A463D4B01933D4B99463D4B02933D4BB5
:1003400098463D4B03932FF005FF04000D00260057
:1003500001F080F92F005B4620000CCB2900B61A73
:100360009F41009B0CCB801A9941020000293DDC83
:1003700039D0002F31DC2DD053461D68019B4246F9
:100380001C684B4611681868039A029B12681B6828
:10039000844218D04E46201A346099422CD04446EC
:1003A000C91A2360954201D053461A6001F01EF924
:1003B00000F01EFA0028C6D100F028FAC10BC0B226
:1003C00001F0DAF8BFE700209942E8D10021954218
:1003D000EAD1EDE7194B9E42CED9012001F094FC01
:1003E0005B4630C3C8E716498A42C2D9022001F0F1
:1003F0008BFC009B30C3BCE700219542D4D1D5E7EC
:10040000F8CF031060D70510486C00209C680020CE
:1004100060D7031000A7010008D00310605B002024
:10042000685B00203C6C0020A4680020406C002029
:10043000A8680020446C0020A06800203F420F0004
:100440001A410000F0B5CE46474680B585B02C482D
:1004500003AB02AA01A930F021F9002803D12948F1
:1004600027492EF031FF0299039A019830F03CF8A9
:1004700033F092F819202EF009FFD02380221B06BA
:1004800092045A62204833F0A5FA204833F0D4F899
:100490000021080036F004FA1D4B1E4C98461E4BF6
:1004A000994601200021404234F044FE00F08AFACF
:1004B0002FF050FE43461B68022B1BDD174F050033
:1004C000226863680E00AD1A9E41002E02DCE8D15E
:1004D000BD42E6D94B461A68012320606160494657
:1004E00053400B60D0231B06012A05D080229204C2
:1004F0005A61D6E70A4FE2E7802292049A61D0E778
:1005000090D003003CD00310D502001028D0031077
:100510009C680020585B0020C86B0020A08601006A
:1005200020A10700F0B5DE464E4645465746E0B5E9
:10053000934C8DB00390934833F07EF8200092499D
:1005400036F092FB0500062104202EF075FE0621F0
:1005500011202EF071FE06210F202EF06DFE0621D7
:1005600010202EF069FE2B001733EA011B03134302
:10057000864A002113400993854B2A000B93854B33
:1005800020000A93A023DB02089308AB36F03CFC62
:10059000814B20001A00002136F0E2FB0122236883
:1005A00001211343236010202EF05EFE0121112053
:1005B0002EF05AFE012104202EF056FE02210F20BB
:1005C0002EF052FE2000754936F04EFB0A2406003C
:1005D0002000062101342EF02FFE0F2CF8D100232D
:1005E00080229A460793F82352025B0204920593F5
:1005F000C02310221B0304A908A8069331F0F8F9C0
:10060000331DF2011B03134308A9102204A85C4DFB
:10061000099331F0EDF9624B320001212800079374
:1006200004AB36F0F1FBF823DB011A0028000121AE
:1006300036F096FB02222B68904613432B60594BF1
:100640000B201A6830239343574A584913602EF001
:1006500041FF01210B202EF01FFF012036F0F4FA9C
:10066000534E3070012036F0EFFA524D28700120C1
:1006700036F0EAFAFF22504B2C78187010404246B0
:1006800033784E4EC702B26017324D4D4D493A4352
:10069000F260E2027160696011001022AA604A4AA9
:1006A000A3460A43EA60494AA40190461143A022A6
:1006B000D205121916609146A022D20594460194E3
:1006C0004A4604249B01634453609460116142468E
:1006D0003A43012787403E490F6087016046C019B1
:1006E00005604360534602973A4F846002613A4C7A
:1006F000039A3B60394B80461A60FF21402220005C
:1007000031F070F9364A374B01981360364B374950
:100710005360D360A023DB059160C6500421484696
:1007200081600298C550434699603B6803399942FD
:100730009B415B42DB009B18AB2233603B6852005D
:10074000683B934202D2039A9B01D41883223B68F0
:100750002C6001333B609200934201D900233B603F
:100760005A460123A02193408622C905D2008B500E
:100770000DB0F0BCBB46B246A946A046F0BDC0468F
:100780000000205070D0031074170C10FFFFFF9F63
:10079000243E1044000006401080030060170C1037
:1007A0004001021414C0014014D00140C1000020D7
:1007B000FF6C0220FD6C0220FE6C0220846C022083
:1007C000946C0220100020501900400039851F0051
:1007D00004240050706C0220A86C0220A46C02203B
:1007E000746C022000A6B6AFFF01000000A6B62F71
:1007F000044A054B10681B68C01A43425841C0B2F6
:100800007047C046C06B0020BC6B00200749084AF7
:100810000B6812689A4207D0064A5800805A1F2275
:10082000013313400B6070470020FCE7BC6B0020D5
:10083000C06B00207C6B00201F22104B10B51C6881
:100840009C46631C1A400E4B1B689A4212D00D4BFB
:100850001B5C002B0ED0FF2B0ED001205B0003434E
:10086000DBB2C9030B4308496000435263460120D1
:100870001A6010BD0020FCE70123F2E7C06B0020E6
:10088000BC6B0020AC170C107C6B002008239C462E
:10089000F0B5C6464A4F84440600E04600B5841CC5
:1008A000BD1C06E0287800281ED101340135A04582
:1008B00033D020780028F5D0BB788342F2D0FB7883
:1008C0008342EFD03B798342ECD07B798342E9D0FD
:1008D000BB798342E6D0FB798342E3D00121FFF765
:1008E000ABFF28780028E0D0B3788342DDD0F378DE
:1008F0008342DAD033798342D7D073798342D4D01C
:10090000B3798342D1D0F3798342CED00021013430
:10091000FFF792FF0135A045CBD132783C78A24257
:100920001AD01300A3439443002B09D01D091D4383
:10093000EB0730D4AB0723D46B0727D42D0713D490
:10094000002C09D023091C43E30733D4A3072CD47C
:10095000630725D424070ED431003800082231F073
:1009600047F880BCB846F0BD0121E320FFF764FFE3
:10097000002CF1D0E6E70021E320FFF75DFFEBE775
:100980000121E120FFF758FF6B07D7D50121E220B5
:10099000FFF752FFD2E70121E020FFF74DFFC9E743
:1009A0000021E220FFF748FFD4E70021E120FFF714
:1009B00043FFCDE70021E020FFF73EFFC6E7C0463A
:1009C0000C6C00207047C046F0B5CE464746060086
:1009D00080B585B00D0001AC90461D480A0031007D
:1009E000994632F0ABFE22001A4B83CB83C229001A
:1009F000300035F0FFFC830007001959164832F02B
:100A00009DFE002F0AD02900300035F009FD002896
:100A10001AD005B0C0BCB946B046F0BDEC006419B0
:100A20000E4F6400A01C4B4642460421C01935F00D
:100A3000C5FE010038550A4832F080FE290030001A
:100A400035F0EEFC0028E4D1064832F0F5FDE0E791
:100A50007CD00310AC180C10B0D003100C6B00202D
:100A6000D0D00310E8D0031010B50A0001000248EE
:100A700032F064FE10BDC04614D10310F8B5060074
:100A80000D00140035F0B6FC012851D0022825D005
:100A9000E8003F4B40194000C25C02309446C01849
:100AA000012A00D167E0002A00D168E0010000239C
:100AB000277804E00133DBB204319C455FD90A7822
:100AC0000800BA42F6D101344388012B2BD029000B
:100AD000300035F0A5FC002821D0F8BD012202230A
:100AE0000121A256E35624782A4821400160002AB9
:100AF00022DB082A00DD0822274801688A180260E4
:100B0000002B32DB082B00DD0823244930000A6863
:100B1000D3180B60290035F083FC0028DDD1204874
:100B200032F08AFDD9E74278022A0BD0062ACED1CC
:100B30002000FFF7ABFECAE711000831DCDA08221B
:100B40005242D9E7012102226156A2562478114867
:100B5000234003600B1E16DB082900DD08230E4826
:100B60000168CB180360131ECCDA1A000832CCDA05
:100B700008235B42C9E70378002BA5D096E7094814
:100B800032F05AFDA3E70831E9DA08235B42E6E7D1
:100B90000C6B0020A0680020A4680020A86800203A
:100BA000E8D003104CD1031030B5134B1968134B28
:100BB000CC18CA5C63781B021343A27812041A4350
:100BC000E3781B06134315D01BBA0AE0CB5CE2782E
:100BD0001B061343627812041343A27812021343D4
:100BE00008D0CC18A279E57912022A438242EDD1CD
:100BF000002000E0012030BDC46300200A03000093
:100C00000022084B1A600132DA6082681A610268B9
:100C10005A6042689A60C2689A6101694269D96102
:100C20001A627047B0680020F0B5DE4657464E465F
:100C30004546E0B5082183B00600002001F0E2F847
:100C400009210400002001F0DDF80A21070000203E
:100C500001F0D8F8022E69D039D8002E00D180E0FA
:100C600028239C462402240AA44400236146CE4D36
:100C7000E1462A682600535429229446A44461463A
:100C80002A68E24653542A229446A44461462A68BC
:100C90002B3653542A68E34693552A6811198B7DE5
:100CA000C97D1B020B43C1490868834200D1F8E0AB
:100CB000486A984200D11BE2A123FF215B00D15476
:100CC00044233739FF33D1540139FF39ABE0032EC8
:100CD0001CD1B54D24022E68240A3019837DC27DB3
:100CE000B2491B0213430A68934200D168E14A6A81
:100CF000934200D1F9E1A123FF225B00F254442387
:100D00003821FF33373AF25449428CE0A84B320085
:100D10001B68A849D86839F0B3FA0120404203B0F3
:100D2000F0BCBB46B246A946A046F0BD9E4D24028B
:100D30002868240A01198A7ECB7E120213431AB254
:100D4000092B75D0412A00D193E0012A79D1FF23E4
:100D50004232FF3283544422FF32835401214942FC
:100D600061E00321904D3B022A681B0AD2181674D9
:100D70002A680002D21856742A680124D218967480
:100D80002A68070AD218D6742A680733D1549A23DE
:100D9000DE2229685B00CA543623313AFF33CA5435
:100DA00001331132CA5438233132FF33CA540B3362
:100DB000CE544423FF338846CE5400E00134200053
:100DC000FFF7F2FE0028F9D042460021774BD219F6
:100DD0005F611C60917258692A681218D172586953
:100DE0002A681218012010715C692A681219FF2400
:100DF00054712A685E69921994745C692A681219A0
:100E000091755C692A681219D17559692A68521856
:100E1000D0705A69296889181A69541EA241524231
:100E20008A700021D860002001F0B4F9002076E734
:100E3000A1220023520083544422FF320021835414
:100E4000F1E78B7DC97D1B020B4358490E689E421A
:100E500000D1DFE04E6AB34200D109E2A123FF22B4
:100E60005B00C25444233821FF33373AC25449420D
:100E7000D9E7514C2368002B07D0A122FF23520051
:100E800083544422FF32835468E7494B23221B6872
:100E90000121DB68494838F037FE012328682360C8
:100EA000EBE70020C3001B189B00C9184B690333F4
:100EB000D018D35C002B00D1F7E1022303703A0273
:100EC0002F68120ABC46A44463466046243325308A
:100ED0001B7800781B060004034360462730007827
:100EE00014000343604626300078113400020343A7
:100EF00010208046904440460190100012308046F9
:100F000001983C5D385C24040006044340461332DB
:100F1000BA5C385C22430002024318001043C0054B
:100F200000D0ACE18C689818A04200D9A7E16046D7
:100F300064462030213400782478000624042043BD
:100F400064462334247820436446223424782402DF
:100F5000204364460002E479000A3818022C00D1CC
:100F6000C8E00C69002C00D0AAE14C68002C00D12C
:100F7000EEE0A41801001A00200030F039FD2A68C4
:100F800000234946535451462A68535459462A6807
:100F90005354A1212A68490093552A685354442187
:100FA000FF31535400213EE7C4630020B0680020A5
:100FB0007857002068D2031070680020D0D1031049
:100FC00000239C46827EC37E120213431AB20A2B70
:100FD00000D1E2E00A2A00DDB0E0062A00D1F7E005
:100FE000082A00D0CCE06346DB0063449B00CB18AA
:100FF00059691C3471181622301930F0F9FC00219F
:10100000002200202E68A1235B00F0544423FF330C
:10101000F25408E70026531F9BB2122B03D8BA4F95
:101020009B00FB589F46B94BB9491B6892B2D868E0
:1010300039F026F911214942A1222B6852000812E9
:1010400098544422FF329954EDE61D239C461E23FA
:10105000A44467469C461F232422A444E0469C46A1
:1010600072438A58A4441C340019012A00D10FE1AC
:101070000022414602702B68DA552B6801325A541F
:1010800061462B6803325A540021D5E72424744367
:101090000C196369C318DB78002BF5D09B4B012139
:1010A0001B680C22DB689B4838F02EFD62692B68B8
:1010B0009B180022DA7000F0C3FA0021BCE7242359
:1010C0007343CB181B6915215A1E93415B4219408B
:1010D0004139B1E724237343CB185B69C318DB782C
:1010E000002BD1D141214942A6E701239C4669E763
:1010F0000120D7E64C68002C00D1A4E0A1181A000A
:1011000030F076FCBF2100232A68890053548249BD
:1011100053548249535482495354013153548149A1
:101120005354814953548149535401315354804994
:101130005354804953548049535421E77F4B9A427A
:101140001ED1022303770021002200202E685AE7D7
:101150000C6A002C00D1D0E089698C460100604601
:10116000A0472A68002800DB0AE7A123FF215B00D3
:10117000D15444233139FF33D1543221494252E60C
:10118000624B6F491B6892B2D86839F079F8122126
:10119000EE22FF202E68494235E75C4B18221B687F
:1011A0000121DB68674838F0AFFC00222B68002182
:1011B0001B191A772B6800201B195A772B681B19EB
:1011C0009A772B68FE321B19DA772E6800221AE70D
:1011D00023001C33F2181D34F35C315D1B020B43FA
:1011E00048D0837FC17F1B0609040B4301002131D6
:1011F000097820300B430178012009020B430021BC
:1012000011702A6810552A680A30D1542A68D218F9
:1012100051702A68D21890702A683530D218D07070
:101220002A689230D21810712A68C038D2185071CA
:101230002A680020D21891712A68D3185022DA71D6
:101240002E680022DFE6CC69002C44D089698C46E8
:1012500001006046A047002800DB53E7A122FF21E0
:101260002B685200995444223139FF32995484E753
:101270000126D0E63221CE22FF204942C3E6A12337
:10128000FF225B00FA544423313AFF33FA5474E7E7
:101290000022414602702B68DA552B685A54614689
:1012A0002B6804325A540021C6E6FF214333FF3332
:1012B000D15444234039FF33D15441214942B2E54E
:1012C000A123FF225B00FA5444232C21FF332B3A45
:1012D000FA544942A7E517220C4B1B481B68DB68F0
:1012E000012138F011FCA122FF212B6852009954F2
:1012F00044224039FF329954DFE7044B18221B681F
:101300001248DB68ECE7C046B8180C10785700208C
:1013100004D20310F4D10310FD020000FE0200000D
:10132000FF020000010300000203000003030000AD
:1013300005030000060300000703000043530000FC
:1013400044D2031028D203109CD10310B4D103104F
:1013500010210B0003400B4A9C46DB06DB0F136099
:10136000094A13784340194205D06346002B04D044
:10137000064B0749196010707047044B0549196006
:10138000F9E7C0463C500020305000203450002087
:1013900065010020B90100207047C0460020704759
:1013A000044B1878044B1B78002B01D108331843E9
:1013B0007047C046FC6C0220FB6C0220034B044AC1
:1013C0001860044B03CA03C37047C046786B002003
:1013D000485B0020505B002010B5041E06D00121A0
:1013E000022000F09FFF044B1C6010BD0021022072
:1013F00000F098FFF7E7C046246C002010B50028E5
:1014000004D00121012000F08DFF10BD002101203A
:1014100000F088FFF9E7C0460FB4F0B5D6464F4656
:101420004646C0B54B4C4C4BA5441C68002C0AD01A
:1014300082239B009D44E0BCBA46B146A846F0BC5E
:1014400008BC04B018470122444D1A602B688BAACF
:101450008A99D868049238F081FA2B680A20D968F2
:1014600038F020FF1D21200000F0CCFC0600010018
:10147000012205A801F030F82868320005AB384990
:10148000C06838F0FDFE374BFA27AA46220098467E
:1014900005AE7F00D1B20020150000F0B3FC42463B
:1014A000390000902B00300031F044FEB4468444F3
:1014B00066463F1A6A1C072DECD10A2333707B1E47
:1014C0009946294F751C21000831C9B2002000F04F
:1014D00099FC2300494600903A00280031F02AFE8A
:1014E000AC464B4684441B1A013465469946082C89
:1014F000E9D10A2311212B70002000F083FC122176
:101500008046002000F07EFC13210400002000F043
:1015100079FC14210700002000F074FC152106005E
:10152000002000F06FFC49464346104A0139039001
:101530000296681C0197009431F0FCFD53461B682D
:1015400005A8D96838F034FF0121094B0948196012
:1015500039F0E0F8F8FDFFFF046B00207857002019
:1015600088D2031098D20310A4D20310B0D2031073
:101570002C6C0020885D00204A425141024BC90179
:10158000014319607047C046385000207047C0467C
:10159000012040427047C04670B5104B88B01860BB
:1015A0000F4B1600196000F003FF012000F0D8FC7B
:1015B00000F03EFF02A802000A4B32CB32C232CB0F
:1015C00032C200F08DFA084B01A8019300F0FEF83A
:1015D0003000FFF715FB002008B070BDC463002089
:1015E000C863002004190C10D91300109446114A46
:1015F00010B51368C018104B10601C6809191960E9
:101600001E2809DD1E2010601E290CDD1E221A6016
:1016100062460A4B1A7010BD1E30F5DA1E20404299
:1016200010601E29F2DC1E31F2DA1E2252421A60CC
:10163000EEE7C046F46B0020F86B0020FB6C022044
:10164000012210B5024B1A6000F0F2FE10BDC04638
:101650003C50002030B54D4883B039F04FF800259C
:101660004B483BF05DFC4B4C4B4B186859680019DC
:10167000694103C300F046FB484B1D68002D3ED076
:10168000474B1B68012B27D0464B10221868464B4E
:101690001968464B1C6863425C41E3B29C46444B6C
:1016A0001B789343EA0F121B544262411201134309
:1016B0000122002D00DD023A384CAA1822600029D0
:1016C0002CD13B4A010013706246384B1A60354BEF
:1016D0001860604600F082F8364B1B68002B0AD079
:1016E0002D49354A03C930CA001BA941002928D118
:1016F000284A904225D8314B186803B030BD2A4B98
:1017000019680029E8D0264B1B68012BE4D0274B31
:101710001B689C46234B1868254B1B7820224442AB
:1017200044419343CA0F121BE0B25442624152013A
:1017300013430122002900DD023A1B4C521822609B
:10174000BFE7DAB2102A08D0162A11D10B2000F018
:101750000BFB0022174B1A60CDE7194C2068431C85
:101760000FD0C0B200F000FB01235B422360F0E722
:10177000FF221A40134B14491B68D86838F080FDCB
:10178000E7E77C3000F0F0FAE3E7C046885D002030
:10179000409C000088130000485B0020F46B002090
:1017A000246C0020F06B0020F86B0020EC6B002014
:1017B000FC6C0220786B0020505B00202C6C002019
:1017C0003850002078570020FCD30310002802D0A6
:1017D000014B02681A6070471C6C00204B1E994137
:1017E000431E984149000843012170B5364A374CE1
:1017F0001378434019421DD125789B0758D5344BA7
:101800001070344A9C4619701378002D1BD1324950
:101810000978090723D4002B27D1304C2378002BDB
:1018200007D02F4B1B68002B01D0002098470023C6
:10183000237070BD21709B0728D5254B1070254A59
:101840009C4619701378244948780007E0D5082091
:1018500003430020137020700978090705D5012182
:101860000B4313700023624613701E4B1B78002B32
:10187000D3D01A4C2378002BDBD1194B1B68002BDB
:1018800001D00120984701232370D2E7104B10703C
:10189000104A9C461E7813780F49487800070FD5E8
:1018A00008200343002013702070002EDDD0D3E702
:1018B000074B1070074A9C461E781378002DEBD119
:1018C000002EA8D0A3E7C046F46C0220F26C0220E0
:1018D000F36C0220F66C0220206C0020F56C0220D4
:1018E0001C6C0020F76C0220F8B502231C00400895
:1018F000044003420BD13B4A1378092B51D05AD8EC
:10190000002B46D0022B5ED1374B1970147037482C
:10191000374A3849057813780C78002D24D00827E9
:10192000354D6E7837421FD008263343002613709A
:101930000670002C07D02878074204D0012003430A
:10194000137000230B702D4B1B78002B14D02C4CE4
:101950002378002B07D12B4B1B68002B01D00120D3
:10196000984701232370F8BD002C03D0224800784B
:101970000007E3D4002BE6D1214C2378002BF2D0D2
:10198000204B1B68002B01D00020984700232370B8
:10199000E9E7072338200B40084008281ED01370C1
:1019A000B5E7164B0807C00F1870C906164BC90FCC
:1019B00019701470ABE70F2B05D1012303400E48BB
:1019C0001470C154A3E70023084813700949084A5A
:1019D000057813780C78002DC6D0A0E708210B43BA
:1019E000137094E7F86C0220FA6C0220F26C02206B
:1019F000F66C0220F36C0220206C0020F76C0220B1
:101A0000F56C02201C6C0020F96C022030B54208F5
:101A100040070AD401232B4913400A7894460F2A21
:101A200008D829489200825897460020254900236B
:101A30000B7030BD0020FAE7244AD05C05239843A0
:101A4000F5E7002BF6D0224B1878F0E7214A107802
:101A5000002BECD108241E4A13781C4222D1012409
:101A60001C40250001241C4228D01025A3431370DC
:101A7000194B1B78002B1CD0702398432B00034379
:101A80001800D4E7154A1278002B05D108209200DF
:101A9000104050231843CAE70820D2001040F8E74E
:101AA0000720C4E7A34313700A239C4646331D0056
:101AB000DEE70E23984363461843B8E700239C46AD
:101AC000D6E7C046F86C02201C190C10206C0020D0
:101AD000F66C0220FA6C0220F96C0220F46C0220F1
:101AE00070B5084D04001022002128002FF07AFF65
:101AF00010236B70002C04D0034B23CC23C307CCE2
:101B000007C370BD606C0220486C0220C00470B531
:101B1000414A040FA300D3580D009F463F4B404E4F
:101B20001A78404B1B7835551A407F2313401C0010
:101B3000621E94413C4A1178994200D013703B4D8B
:101B40002B689C4204D03A4B20005B6998472C607C
:101B500070BD334E73788B4205D0354B1B68002B1C
:101B600001D0080098472D4B01241A782D4B1B7883
:101B7000D9E71C212A4C2B48E37A1940274B1A78C5
:101B800003781C2942D01829CED10021A172CBE7BD
:101B90002249244B68B20A781B78002830DBAA431C
:101BA0001F4E0A70BFE71F4E327813000A408B4366
:101BB0003370520720D51F4A106800281CDB012112
:101BC000494211601A4A1269002A15D0C0B29047E2
:101BD000124B1A783378124EA5E7114E33788B42A8
:101BE00005D0134B5B68002B01D0080098470B4BC6
:101BF0001A780C4B1B7896E7084A094E127892E740
:101C00007F2028400243064E0A708CE709490D6088
:101C100004210B43037087E75C190C10EF6C022062
:101C2000606C0220EE6C0220F16C0220646B0020DC
:101C3000486C02204050002070B5C3042A4D1B0F91
:101C40002A4AEC5C9B00D3589F46294B9B68002B8B
:101C500046D09847EB786C781C4098430443E4B234
:101C6000244A254B11781A780A407F2313401D001F
:101C70006A1E9541EDB2214A1178994200D0137045
:101C80001F4E33689D4204D0194B28005B6998476A
:101C90003560200070BD0421174A13788B43137000
:101CA000144A12781A40E0E7134B1C78114B1A784B
:101CB0007F23224013401A00511E8A41D5B2D2011F
:101CC0001443D8E70A4BDB68002B0BD09847AB785E
:101CD0002C78C1E78024074B074A1B781C43E0E7B8
:101CE0000020B7E70020F2E7606C02209C190C107E
:101CF000486C0220EF6C0220EE6C0220F16C022096
:101D0000646B00207047C04670B5124A13780128F2
:101D10001CD0022816D0104A12781A407F23134094
:101D20001C00621E94410D4A1178994200D0137034
:101D30000B4D2B689C4204D00A4B20005B699847EE
:101D40002C6070BD02210B431370E4E701210B43AB
:101D50001370E0E7EE6C0220EF6C0220F16C0220C1
:101D6000646B0020486C02201C2370B5114AD17AA4
:101D70000B400C2B00D070BD042190720E4A1378DA
:101D80000B4313700D4A12781A407F231340190039
:101D90004A1E91410A4A08001178994200D01370F6
:101DA000084C050023689842E5D0074B5B699847CB
:101DB0002560E0E7606C0220EE6C0220EF6C0220F0
:101DC000F16C0220646B0020486C0220BA220021D2
:101DD0000120024B5200404299507047705B002036
:101DE0007047C0467047C0460120704700207047CA
:101DF0007047C0467047C0467047C0467047C046EF
:101E00007047C046002806D01F2900D9A1E0524BD8
:101E100089005B589F465148F6E7806C7047012067
:101E2000FCE7406CFAE7006CF8E7C06BF6E7806B04
:101E3000F4E7406BF2E7006BF0E7C06AEEE7806A18
:101E4000ECE7406AEAE7006AE8E7C069E6E780692C
:101E5000E4E74069E2E70069E0E7C068DEE70068C0
:101E6000DCE74068DAE7C0235B00C058D6E7BE2352
:101E70005B00C058D2E7B823C058CFE7B423C0589E
:101E8000CCE7A823C058C9E7B023C058C6E7AC23A5
:101E9000C058C3E7AA235B00C358002B04D0AC236F
:101EA0005B00C358002BB8D1A423C058B6E7AA23BF
:101EB0005B00C358002B04D0AC235B00C358002B3D
:101EC000ABD09C23C058A9E7AA235B00C358002BC2
:101ED000A3D08C23C058A1E7A623A8225B00520000
:101EE0008258C3581343B822520082581343AA227F
:101EF00052008258D2021343AC2252008258D202BE
:101F00001343AE22520081584D3A0909FF3A0A4064
:101F10001343B02252008158593A0909FF3A0A4046
:101F20001343B42252008158673A8909FF3A0A40A4
:101F30001343B62252008258D205D20F1343B22265
:101F40005200825851424A419000184366E7806827
:101F500064E7002062E7C046DC190C10705B0020CB
:101F600010B50A2830D8804B80001B589F46C222EB
:101F70007E4B7F49520099507E4904329950F4219A
:101F8000002249005A507C49F62040001950D221C5
:101F9000EF384900FF38585004315A5004315A5034
:101FA00006300431585004315A50B530B339FF3936
:101FB000FF30195004301950BF31FF316F485A506B
:101FC0000431585030395A5010BD0220FFF7C8FF75
:101FD000C2220121654B520049429950F4E7C222C6
:101FE000624B63495200995065490432995000216F
:101FF000F62060329950634A40001A50D222D4240D
:10200000EF38FF3852009850A33AFF3A64001A5153
:1020100004341851B330FF301A5004301A500430D1
:102020001A50BB32B638FF32FF38985004320238AB
:102030009850043283309850303A9950C4E7C22205
:102040004A4B4B49520099504D4904329950F42162
:102050000022F62049005A504B4940001950D22125
:10206000F1384900FF38585004315A5004315A5061
:102070000A300431585004315A5004380431585051
:102080000431013058500431023858500431813045
:10209000585030395A5097E7C2220121334B520031
:1020A000494268E7C2220121304B5200494299500F
:1020B000304904329950F421002249005A503349E2
:1020C00062E7C2220121294B520049429950294915
:1020D00004329950F421002249005A502B49F6202D
:1020E00040001950D221EF384900FF3858500431D0
:1020F0005A5004315A5006300431585004315A5065
:10210000B530B339FF39FF30195004301950BF31A1
:10211000FF315A501949C532FF3299500121303AE6
:10212000995051E7C2220121104B52004942995067
:10213000104904329950F421002249005A501449A0
:1021400022E7C422094B52000A499950F421002287
:1021500049005A500E49C2E7C2220121034B5200E6
:10216000494299500432EFE75C1A0C10705B002072
:10217000FFFFFF001FF70000081D0C100602000003
:102180001FA70000081B0C10081C0C10081E0C10C8
:10219000081F0C1010B51F2805D8604B80001B5875
:1021A0009F465F4B996410BD5D4B9960FBE75C4BAC
:1021B0005964F8E75A4B1964F5E7594BD963F2E7CC
:1021C000574B9963EFE7564B5963ECE7544B196350
:1021D000E9E7534BD962E6E7514B9962E3E7504B8D
:1021E0005962E0E74E4B1962DDE74D4BD961DAE702
:1021F0004B4B9961D7E74A4B5961D4E7484B19617A
:10220000D1E7474BD960CEE70800FFF7A9FECAE740
:10221000434B0904090C1960C5E7414B5960C2E7FB
:10222000B8223F4B9950BEE7B4223D4B9950BAE7D4
:10223000A8223B4B9950B6E707220A40B021384B01
:102240005A50B0E707220A40AC21354B5A50AAE752
:10225000AA22334B52009A58002A04D0AC225200D2
:102260009A58002A58D1A42299509CE7AA222C4BB4
:1022700052009A58002A4FD08C22995093E7C422DA
:10228000274B52009A58A6200A408021090211408B
:10229000400019508021C901114004301950E0213B
:1022A000C90011402030195011017038844608408F
:1022B0000400AE2040001C50B024DC380140640013
:1022C00019515107603CFF3CC90F61406434FF3431
:1022D000195191010840B42149005850604611023B
:1022E00001406C3019500421D20A1140183819509D
:1022F00002210A405731FF315A5054E7AA22084BB5
:1023000052009A58002A04D0AC2252009A58002A4F
:1023100002D09C22995046E7996444E7881A0C1031
:10232000705B00208C460121E423814060461F4AF7
:102330005B00D358002818D00B43E42149005350C8
:10234000190614D459061FD4990620D4D90621D4CD
:10235000190722D4590723D402200100194018423A
:1023600021D1BA235B00D15070478B43E5E7BA21F6
:10237000E02349005058DB0053509842F4D0E62344
:1023800001215B00D150EFE706210902E9E70521B1
:102390000902E6E704210902E3E703210902E0E775
:1023A00002210902DDE701210902DAE7705B002062
:1023B000134B1A68002A01D101321A60F821114B1F
:1023C000114A49005A50114A04315A50104A0431F6
:1023D0005A50104A04315A500F4A04315A500F4A89
:1023E00004315A500E4A04315A500E4A04315A50A0
:1023F0000D4A04315A500D4A04315A507047C046B4
:10240000F8680020705B0020CD1D0010E11D001059
:10241000FD1D0010E51D0010011E0010E91D00103B
:10242000ED1D0010F11D0010F51D0010F91D00102C
:10243000F8B5CC230026264C5B00E650203BE65046
:10244000244BC8251E6002236D0063518B33FF337C
:10245000E6503C3BE650043BE6502300E0200021E0
:102460007133FF33C00003C3E423AA215B0049009A
:102470006058E650AC22213BFF3BE65043081F006A
:102480005200A358A6503B4003432233A06C9B004C
:10249000E31858600423BC3AA25800206350A26499
:1024A000A3603AF02DFDA368A0641A1DA260C222A9
:1024B0005200A05818403AF023FDF6235B00E35881
:1024C0006651A0601A78D0235B00E250F8BDC04688
:1024D000705B0020D06B002000207047C422294B85
:1024E00052009A58A6211040802212020240490050
:1024F00030B55A508022D201024004315A50E022B5
:10250000D200024020315A5080240201150064009C
:10251000254014395D50B025DC390A406D005A5110
:102520004207603DFF3DD20F6A406435FF355A5186
:1025300082011140B42252009950B6210202224079
:1025400049005A50C20AAA20944640001C58143927
:102550005A5865082A40224322329C6C92009A18ED
:1025600054606446042222401A505338FF382040F9
:102570005850510808401043223080001818426813
:102580009A6430BD705B0020F0B5A624A8252C4BC2
:1025900064006D0018595E59AA223043B8265200D3
:1025A0007600995894469E5904329A583043CE0288
:1025B0003043D6023043AE2676009F594D3E3F0948
:1025C000FF3E3E403043B02676009F59593E3F09BA
:1025D000FF3E3E403043B42676009F59673EFF3EA3
:1025E000BF0937403843B6277F00DF59C646FF058D
:1025F000FF0F3843B2277F00DF598046380000B50F
:1026000082B0474247414046BF00384300271F5130
:102610004C081440214322319C6C890059184C60AD
:102620000421644616400E432236B6009E19726895
:102630005F5119519A6402B080BCB846F0BDC046E3
:10264000705B0020072330B50F24204A2500106856
:10265000410A194002318C468900511803404868EC
:10266000AE2102339B0049005158D3185B68C9055D
:102670001D40C90F491904400919CD43092900D942
:102680000631F024234004401B195B180021992BCC
:1026900002D90131A03BFF31AE2464001151103446
:1026A00011511D40043C1551B021B22549006D0067
:1026B0005350693C51592340194351516146A0433D
:1026C000890052181843506030BDC046705B00202E
:1026D000072270B5FF241249B02608687600430A25
:1026E0001340024092008A18157B220002339B009F
:1026F000CB18586802409446AA188A51664655403D
:1027000056402E40B4256D004E5104354A51103DBF
:102710004A51A0432240083510434A51586070BDC9
:10272000705B0020072270B5164CB0262168760039
:102730004B0A13400A40210008320C3192008A5A99
:102740000233944661469B00E31858680204120C59
:1027500089180D0AA55166464A404E403240B426BB
:10276000120A7600A251B62209045200000CA550AC
:10277000090C103A0004A55008430832A1505860D3
:1027800070BDC046705B00200722174970B508680D
:10279000430A134002400800023308329B00CB1862
:1027A00092000C3085585C682819020E1600B02281
:1027B00052008E502A004240160022004240324011
:1027C000B426120E76008A512A00224382432C40FE
:1027D0002243B624D20D64000A51103C0A51B222A1
:1027E00052008850586070BD705B00200722084975
:1027F00008680C31430A1340083302409B0008323A
:102800005B189200895E1A6852181A607047C046B9
:10281000705B002007231749F0B50868AE26420A0E
:102820001A40023203409B0092008A18CB181C7B8E
:102830005368FF201D0076009C468B590540DB0540
:10284000DB0F1B195B195C405D402540B42464001C
:102850000D51B225B0276D0004340B517F004C5947
:10286000CB518B5103401C434C51614681430B4378
:102870005360F0BD705B002007231948F0B5016874
:10288000AE244A0A1A400B409B00C31802329D89AD
:1028900093009C468444634664005A6803591104BB
:1028A000DB05DB0F090C5B195B185D4059402940C3
:1028B000B425090A6D004151B6211F0A075149008C
:1028C000083447501B040159120C1B0C1204B0268B
:1028D0001943134362467600875101515360F0BD9E
:1028E000705B00200723194970B50A68500A184028
:1028F00013409B00CB18DC68AE23B0225B009C46E3
:10290000CB5880000818DB05C568DB0F1B195B1965
:102910001E0E52008E5026002A005E405A40324061
:10292000B426120E76008A5122002A432540B6248E
:102930009A432A43D20D64000A5164460A5108346E
:102940000A59C3601A430A5170BDC046705B00202B
:1029500007220E490868430A1340024092008A1871
:10296000D2680B489B00CB181043DA680240DA604B
:102970001304B222180C520088501B0E043A8B50DC
:10298000002200236931FF310CC17047705B0020C9
:102990000000FFFF07220C490868430A1340024069
:1029A00092009B00CB188A18D068DA680240DA607F
:1029B000B2235B00CA50120E043BCA50002200230F
:1029C0006931FF310CC17047705B00200722110094
:1029D0001B4BF0B51868E0250140400A0138024061
:1029E000013217006D005D59164EAF4002318C0068
:1029F00035681C1960682479ED1BA4463560D44005
:102A0000050602D5104DAD5C2C43FF25A843890077
:102A1000591820434860B021002049005C5004311F
:102A20005C50043158506039FF398A1A6146914030
:102A30000A00B62149005A5010395A50F0BDC0461C
:102A4000705B0020D06B002090210C100721080043
:102A50001C4BF0B51A68E0251040520A013A1140AB
:102A600001310F006D005D590230AF408200164EFB
:102A70009A18526835681404240CED1BA44635607E
:102A8000CC40150403D5114D4E00755B2C43120C40
:102A900080001204181822434260B022200A52001B
:102AA0009850002004329C5004329850603AFF3A0B
:102AB000521A614691400A00B62149005A50103915
:102AC0005A50F0BD705B0020D06B00200C210C1020
:102AD00007221100194BF0B51868E0260140400AA2
:102AE000013802400132170076009E590231B7408A
:102AF0008800181840683E000400114DD4402F682B
:102B0000BE1B2E60002803DA0E4D960075592C432B
:102B1000890059184C60B021250E49005D500431E0
:102B20005C50002404315C506039FF398A1A9040AF
:102B30006431FF31585010395850F0BD705B00209F
:102B4000D06B002008200C10072318003B4AF0B57A
:102B50001168DE460840490A0B40023357464E468C
:102B600045469B00D318FF2459683F230230834613
:102B700080001018E0B54668A0460B403440A246DD
:102B8000DC40002B24D02E4DA946E0256D00555980
:102B90002F001D00BD404F463F687D1B4F463D60E6
:102BA00080253540AC4638250D4224D06346002BA5
:102BB00039D08023B621454601245B00490053509B
:102BC000103935435350803B9C464560644203E0D6
:102BD000B621A44649005350B02361465B00D15052
:102BE00000210433D4500433D150F0BCBB46B2466C
:102BF000A946A046F0BD6146002902D01148C05C3C
:102C000004435946FF2089008643511826434E60ED
:102C100009215746CB1A9F406431FF315750103974
:102C2000A4465750D8E743469E43B62361465B000F
:102C3000D150103B00244660D150CDE7705B00209E
:102C4000D06B002090210C1007231800F0B5CE4661
:102C50004746384A3F24116880B50840490A0B406E
:102C6000023302309B008500D31855195E686B68EB
:102C7000344019049C460B0C1F009946E740002C79
:102C800023D02D4B21009846E0235B00D358994078
:102C900043461B685B1A41460B60802361461B025A
:102CA0000B403021314221D0002B37D06146234BDD
:102CB00001270B436B60B621802349005B00535012
:102CC000103953507F42803B03E0B6235B00D45061
:102CD0000B0EB02149005350B22300215B00D750A6
:102CE0000433D150C0BCB946B046F0BD002B03D070
:102CF000134B6100CB5A1F4363464E46190C8000AC
:102D0000090439431018013CE6404160AE2133020A
:102D100049005350103153503B0ADAE76146090C21
:102D200009046960B62149005350103900275350F7
:102D3000CFE7C046705B0020D06B0020FFFF000093
:102D40000C210C1007231800314AF0B51168C64653
:102D500008400230490A0B4081008C469444614689
:102D600002339B00D31849685D683F230C002B4059
:102D7000DC4000B5002B1BD0E0277F00254ED75943
:102D8000B0463E001F00B74046463668F61B474631
:102D90003E60AD061BD500292CDB002361464B604D
:102DA000B62149005350103953500024002103E04C
:102DB000B62040001350090EB0235B00D150002113
:102DC0000433D4500433D15080BCB846F0BD002940
:102DD00003DA114D9E0075592C43013BD940AE23B7
:102DE00009025B008000D15010181033D1504460AC
:102DF000210EE1E7012463466442B6215C60802332
:102E000049005B00535010395350DC39D4E7C046B9
:102E1000705B0020D06B002008200C1007200200FF
:102E2000264BF0B51968CE460A4002329200914610
:102E300099444A46490A01390840411C8C46516868
:102E4000FF220C00144047462600904662469640FA
:102E5000E022520080B59F586246BA40170083B006
:102E60000191174945460A683540D21B0A6042461F
:102E7000019991434A4629435160B62221005200EC
:102E80009E50103A9E5004329D5004329D500D4A7F
:102E9000121892781140144202D08A4208D0802140
:102EA000B4225200995003B0C0BCB946B046F0BD40
:102EB000073842425041C101F2E7C046705B002032
:102EC000D06B002090210C10072210001E49F0B595
:102ED0000B68E02718405B0A013B1A40541CC646A9
:102EE0009046220080000818C3687F001D00CF595B
:102EF000A540BA40170000B5C560B020134E400091
:102F00003268D71B1A0037602E0E0E5004300D5059
:102F10004D38FF38001BB624C24064000A51103CF3
:102F20000A5142460A480232920012581340D21AFD
:102F3000501E8241581E83411340B422DB015200CF
:102F40008B5080BCB846F0BD705B0020D06B002079
:102F500008200C1007231900F0B53F26324AC64658
:102F60001068FF240140400A0340300002339B00F8
:102F7000D31802315D688B00D318596800B58C46B0
:102F8000284021402E422AD0284E0700B046E02695
:102F900076009659B74046463668F61B47463E606F
:102FA00067463826A7432E4227D10D0085402C4086
:102FB00027435F60B6235B00D550103BD5500433E8
:102FC000D4500433D4501A4B1B185B7819405B1A49
:102FD000581E8341481E81411940C80107E0B623AD
:102FE0005B00D05013006133FF3319605960B42384
:102FF0005B00D05080BCB846F0BD5F60002308285D
:103000000DD0B62040001350103813500023043068
:103010001350043013504B1E9941C801E7E70B02CF
:10302000F8300340EDE7C046705B0020D06B002015
:1030300090210C1007231900F0B53F26334A106881
:103040000140400A0340300002339B00D318023194
:103050005D688B00D318596828400C04270CBC46C7
:103060002E422DD0E024070064001459284EA740BA
:103070003468090CE41B3460302409042C422BD141
:103080006446844025042E0C31435960B023B62198
:103090005B002D0ED5500433240A4900D650013070
:1030A0001C4B4000545010395450C15A63460B40D9
:1030B000C91A481E8141581E83410B40D80107E0C0
:1030C000B6235B00D050240E0C3BD4500433D750B1
:1030D000B4235B00D050F0BD5960002310280ED0FF
:1030E000B621490053501039535000236046043133
:1030F000535004315350411E8841C001E8E76346F4
:1031000080211B0249000B40EAE7C046705B0020AB
:10311000D06B00200C210C1007231900324AF0B5A7
:1031200010680140400A03400231023389009B00CD
:103130005118D31848685C683F23050023409D4020
:10314000AC46002B2BD0E026760097591E00BE40DF
:10315000264D2F68BE1B2E60202525422CD16446AB
:103160004C600400E91ACC402102B62464001151DD
:10317000103C115161460C0EB02149005450644678
:103180000431545001331A499B005B5818401B1AF4
:10319000591E8B41411E88410340DB0108E0B621E6
:1031A00049005350B021280E490050500431555069
:1031B000B42149005350F0BD00244C600021202B65
:1031C0000ED0B6235B00D150103BD150B02100236C
:1031D0004900535004315350431E9841C301E7E75F
:1031E0000102E0331940ECE7705B0020D06B002057
:1031F00008200C1007231A000C4830B50168B225CE
:103200000A40490A0B401F219B00C318DB680232A9
:103210000B401E3999400C009300C3185A686D008A
:1032200014404A4044515A6030BDC046705B002093
:1032300007231A000C4830B50168B2250A40490A34
:103240000B401F219B00C318DB6802320B401E3964
:1032500099400C009300C3185A686D0014408A43CB
:1032600044515A6030BDC046705B002007231A00ED
:103270000C4830B50168B2250A40490A0B401F21AD
:103280009B00C318DB6802320B401E3999400C00CA
:103290009300C3185A686D0014400A4344515A60A1
:1032A00030BDC046705B00200B490B689C465A0A33
:1032B00007231A4092008A18D0681F2210401E3A35
:1032C0008240604603409B00CB18DB681340B2226B
:1032D00052008B507047C046705B00200721FF20D2
:1032E000094A13680B4002339B00D3185968814385
:1032F000596013000020002161336932FF33FF322F
:1033000003C303C27047C046705B00200723190047
:10331000134A70B51468214089005118C868610AC1
:103320000B40FF219B00D318DC680B0023409C4618
:103330000B0065460340EB1AB0250E006D0053519B
:103340001E4004355651654660405D4028400140AE
:10335000B42040001150B6214900535070BDC04602
:10336000705B0020072213001449F0B50C00B02652
:1033700008680C340340400A0240083392008A185F
:103380009B00E358D5681A042804000C120C821A1A
:10339000140A76008C5150401604B4226B4003404E
:1033A0001B04360C1B0E520037008B50B226B6237E
:1033B00076005B008F51CC50F0BDC046705B0020A2
:1033C00007231900144A30B5100014680C3021404E
:1033D000640A234008319B00D31889004058DC68F8
:1033E000211A0B0E1D00B0235B00D5500433D150C1
:1033F000030063401D0023004B402B40B4251B0EEF
:103400006D00535103000B43A34301400B43B6210E
:10341000DB0D4900535030BD705B002007231900BD
:10342000154A30B514682140023189005118042032
:10343000085E1100640A234008339B000C31CC580D
:10344000211A0B0E1D00B0235B00D5500433D15060
:10345000030063401D0023004B402B40B4251B0E8E
:103460006D00535103000B43A34301400B43B621AE
:10347000DB0D4900535030BD705B00200C2007234A
:10348000844616491A008C44604630B50C682240C8
:1034900008329200805E6246640A234008339B0033
:1034A000D458221A130E1D00B0235B00CD500433F4
:1034B000CA50030063401D00230053402B40B42535
:1034C0001B0E6D004B5103001343A34302401343F3
:1034D000B622DB0D52008B5030BDC046705B002021
:1034E00007231900144A30B5146821408900511887
:1034F000C8681100640A234008339B000C31CC5883
:10350000211A0B0E1D00B0235B00D5500433D1509F
:10351000030063401D0023004B402B40B4251B0ECD
:103520006D00535103000B43A34301400B43B621ED
:10353000DB0D4900535030BD705B00200C20072389
:10354000844616491A008C44604630B50C68224007
:103550000832920080586246640A234008339B0078
:10356000D458221A130E1D00B0235B00CD50043333
:10357000CA50030063401D00230053402B40B42574
:103580001B0E6D004B5103001343A3430240134332
:10359000B622DB0D52008B5030BDC046705B002060
:1035A000024A9368023393607047C046705B002004
:1035B00007231A000C4908680240400A03409B0098
:1035C000CB18187B9300CB18DA684240DA60FF23EF
:1035D00013400A006132FF3213605360002200235F
:1035E0006931FF310CC17047705B0020072319005F
:1035F0000D4A10680140400A03409B0089005118A1
:10360000D318C8689B894340B020CB601B04190CB9
:1036100040001B0E1350B2235B00D150002000214C
:103620006932FF3203C27047705B00200723190024
:103630000C4A10680140400A03409B008900511861
:10364000D318C868DB684340CB60B021180E49002E
:10365000505004315350002000216932FF3203C220
:103660007047C046705B0020072207490868430A7C
:103670001340024092009B00CB188918D868CA6892
:10368000DA60C8607047C046705B002007230749B6
:103690000868420A1A40034092009B005B185218C7
:1036A000D16AD86AD062D9627047C046705B002088
:1036B000072307490868420A1A40034092009B000A
:1036C0005B188918CA68D86AC860DA627047C04651
:1036D000705B002007231900064A10680C32014075
:1036E0000831400A03408900515808339B00D150EB
:1036F0007047C046705B002007221100154BF0B5E3
:103700001868E0260140400A0138024001321700E3
:10371000890059187600C8689E590400B740D44003
:103720003E000D4DCC602F68B021BE1B2E600025E1
:1037300049005D5004315C505C39FF398A1A904071
:10374000B4226431FF315850520010399D50585006
:10375000F0BDC046705B0020D06B0020072319002D
:10376000274AF0B51068FF240140400A03400233A5
:103770009B00D31858683F23023118408B00D318A0
:103780005968C646A0460C402600C64000B5B4465F
:1037900000281AD0E0277F00D7591A4E3D000700B5
:1037A000AF403568ED1B35604546A94308281CD855
:1037B00065462943596009231B1A9C40B6235B00C8
:1037C000D450103B0021D45003E0B62331005B00FD
:1037D000D050B0235B00D15061460433D15000215A
:1037E0000433D15080BCB846F0BD5960AE210023EF
:1037F00049005350103153509C460021E9E7C04620
:10380000705B0020D06B002007231900214AF0B51F
:1038100010680140400A03403F2002339B00D31848
:1038200002315B68890051180340486884460004EF
:10383000040C2500000EDD40002B16D0E0201F00F8
:1038400040001058144E87403068C01B30606046FE
:10385000000C0004102B14D82843013B4860DC40C6
:10386000AE210020230249005350B6214900535095
:10387000B02300215B00D0500433D5500433D15025
:10388000F0BDAE23486000215B00D1500020002332
:103890000025EAE7705B0020D06B002007231900A9
:1038A000274AF0B510680140400A034002339B00EC
:1038B000D31802315D688B00D31859683F200C0083
:1038C0002840C440A446002818D0E0240700640023
:1038D00014591C4EA7403468E41B34602026340081
:1038E0002C402E4218D165460138C1405D60AE23A0
:1038F00009025B00D1501033D15003E0B6235B00C6
:10390000D0500C0EB02361465B00D4500433D1502C
:1039100000210433D150F0BD00245C600023202836
:1039200008D0B621490053501039535000230024C9
:103930009C46E7E7CB0D802149000B40F1E7C046EC
:10394000705B0020D06B00200723F0B5FF26190024
:1039500034001648C6460268154F1140520A013A13
:10396000023113408A0081184A680133904614409E
:10397000E022520082589C4093403A683500D31AA6
:10398000424600B53B60B0232540B2432A434A601B
:1039900000225B00C5500433C5500833C450103BAF
:1039A000C4500C33C25080BCB846F0BD705B0020E0
:1039B000D06B002007221100154BF0B51868E026E7
:1039C0000140400A01388900591802400132C86894
:1039D0001700040076009E599440B7403E00CC602A
:1039E000B0210C4D49002F68BE1B2E60250E5D5086
:1039F00004315C504D39FF398A1AD0405531FF31BE
:103A00005850B42210395850002152009950F0BD3E
:103A1000705B0020D06B002007231900234AF0B50B
:103A20001068FF260140400A03403F2002339B00FC
:103A3000D318023105005C6807008B003100D318F1
:103A40005868254001403C421AD0194C2F00A4462A
:103A5000E02464001459B043A74064462468E41B82
:103A600067463C60082D17D8A9400C003100214062
:103A700008435860B6235B00D450103BD45002E09A
:103A8000B6235B00D550B0235B00D1500433D15036
:103A900000210433D150F0BDAE215860002349000D
:103AA0005350103153500021EDE7C046705B0020A9
:103AB000D06B002007231900244AF0B510683F247A
:103AC0000140400A034002339B00D3185D68023175
:103AD0002E008B00D3185868264001040F0CBC46FA
:103AE00025421BD0E021350049005158184C8D402B
:103AF0002168000C491B21600004102E1CD83C00DA
:103B0000B44021040D0C28435860B620240A40001C
:103B100014501038AC461450090E03E0B6235B0075
:103B2000D650090EB0235B00D15061460433D1500A
:103B300000210433D150F0BDAE215860002349006C
:103B40005350103153509C460021EBE7705B00202E
:103B5000D06B002007231900284AF0B51068C6462C
:103B60000140400A034002339B00D31802315D68D4
:103B70008B00D31859683F200C002840844000B5C2
:103B800000281AD0E0277F001D4ED759B0463E00CE
:103B90000700B74046463668F61B47463E6020267B
:103BA0002E4219D1301AC1405C60B62309025B0075
:103BB000D150103BD150210E03E0B6235B00D05012
:103BC000210EB0235B00D15000210433D4500433C4
:103BD000D15080BCB846F0BD00245C600023202892
:103BE00007D0B6214900535010395350002400210A
:103BF000E7E70B02802149000B40F2E7705B0020F1
:103C0000D06B0020072319000D4A10B51068014041
:103C1000400A0340FF20023389009B00D31851184B
:103C20000C7B596881432143596013000020002117
:103C300061336932FF33FF321C605C6003C210BD28
:103C4000705B002010B50C240723A44619000F4A0E
:103C50009444644610680140400A0340083102332E
:103C600089009B006158D318D88809040C0C000403
:103C700020435860B023090E5B00D1500020002182
:103C80000433D4506932FF3203C210BD705B002090
:103C900010B50C240723A446074908688C44420A3F
:103CA0001A40034002339B00C9180423CB5E6146CF
:103CB000083292008B5010BD705B0020072306492C
:103CC00008680C31420A1A40034008339B00CB5E5F
:103CD000083292008B507047705B002080200721D3
:103CE000400010B50400114A844613685C300B4054
:103CF0009B00D318DB6819010C401450B024DC3849
:103D00000140640011515907603CFF3CC90F6140FC
:103D10006434FF34115199010840B42149005050D6
:103D200061461B020B406C31535010BD705B00208C
:103D30000723A820224A4000116810581940463332
:103D4000FF33D35810B50343B82040001058023158
:103D50000343AA20400010588900C0020343AC204E
:103D6000400010585118C0020343AE2040001058C4
:103D700000090400102020400343B02040001058E8
:103D800000090400082020400343B42040001058DC
:103D900080090400022020400343B6204000105850
:103DA000C005C00F0343C88800040343B22040008D
:103DB000125850424241920013434B6010BDC0461E
:103DC000705B0020072370B51C4E31684A0A1A4008
:103DD0000B4002339B00F31804255D5F9446002DD1
:103DE00029D02B000022002401200100194091421B
:103DF00007D002345B0806D00100424019409142CE
:103E0000F7D15B08F1D10E4A13681B1B13606246A1
:103E100002329200B2180421535E6B435360B22207
:103E20005200B3501B0E043AB350002200236936EF
:103E3000FF360CC670BD0024E5E7C046705B00206D
:103E4000D06B00200721214B70B51A689A240A40D4
:103E50000232910059184868AE2149005958C905E5
:103E6000C90F0918611A65348C4621409A2927D058
:103E700066460F25354000260A2D18D0B42464006C
:103E80001E51693C9200A0439A1808435060B2202A
:103E900040001A580A431A5080225200B6204000AF
:103EA0001A5010381A50B0225200995070BDCD43AC
:103EB0006646F0213140103121400D402E00DDE7F3
:103EC000B4220020520098500022E7E7705B0020E7
:103ED00070B50722FF240F48B02503686D0013401A
:103EE000220002339B00C3185968B4260A4052428C
:103EF0004251043D425110354251150076000D40AB
:103F00008551B2252240A1436D00114342515960B1
:103F100070BDC046705B00200722104930B50B68A9
:103F2000134002339B00CB185A685042040E250000
:103F3000B02464000D5114000443E40D2500AE24A8
:103F400064000D51024010340D51120E043C0A5110
:103F5000B22252008850586030BDC046705B0020CD
:103F600070B5FF240723AE25260011486D000268B6
:103F70001A4002329200435982185168DB050E4004
:103F8000DB179B1BB02643511D00760083510D406B
:103F90000C3683512E00B4256D004651043D465920
:103FA0002340A1431E4319434651516070BDC04692
:103FB000705B00200723154830B50268B0251A4011
:103FC0005633FF339C460232920082185168C35820
:103FD0000C04DB05240CDB171B1B1C0A6D00445171
:103FE0000C354451654644511D00B4240D402D0A42
:103FF00064000551043C05591B04090C1B0C090401
:104000001D4319430551516030BDC046705B00200F
:10401000072270B5AE2411486400036813409B006A
:10402000C1180359CA68DB05DB179B1A1D0E2E0049
:10403000B0256D00465115001D43ED0DAC4666469A
:10404000B6251A400651120E0C340251043C025996
:104050006D001A4346510251CB6070BD705B002069
:104060007047C046FF20072110B504000A4A1368B4
:104070000B4002339B00D318596888436140596054
:1040800013006133FF33186058600021002069324B
:10409000FF3203C210BDC046705B002007210A4AF0
:1040A00013680B409B00D318D968C943D960B0236B
:1040B000080E5B00D0500433D1500020002169323B
:1040C000FF3203C27047C046705B002007220D49D3
:1040D0000868430A1340024092009B00CB188A18DC
:1040E000D868127B0243DA60FF2313400A00613272
:1040F000FF3213605360002200236931FF310CC18D
:104100007047C046705B002007220E490868430ACA
:104110001340024092009B00CB188A18D8689289FD
:104120000243B020DA6013041A0C40001B0E0B503F
:10413000B2235B00CA50002200236931FF310CC159
:104140007047C046705B002007220C490868430A8C
:104150001340024092009B00CB188A18D868D2689E
:104160000243DA60B023100E5B00C8500433CA501B
:10417000002200236931FF310CC17047705B0020C1
:10418000072319002048F0B50268C6461140520ABC
:10419000013A023113408A009446844462465568CD
:1041A00010222C04240C21000133D21A91400A0061
:1041B0002100D9400A43E0211204160C90461A004F
:1041C00049004158114F8A40396800B5891A624642
:1041D0003960290C0904314351604246B021120E66
:1041E00049004250B222520086505C3AFF3AD21A3D
:1041F0009440B622B4235200845000225B00C25087
:1042000080BCB846F0BDC046705B0020D06B00207B
:1042100007231A001448F0B50168E0260A40490A4D
:104220000139920082180B400133D1681F000C0045
:1042300076008659DC41B7403E00D460B0220B4D79
:1042400052002F68BE1B2E60250E8550043284500C
:104250005C3AFF3AD31A9940B62300225B00C15062
:10426000043BC250F0BDC046705B0020D06B002004
:1042700007200100274AF0B51368474619405B0A3A
:10428000034002339B00D3185B6802319C461E003A
:104290008B00D3185968CE468946FF213F240D0074
:1042A000884680B54946674626400D403C4223D0AB
:1042B00064460440A44608246746E41B2F00A74038
:1042C00061463C002F00CF4041463C430C40C13189
:1042D000515827008E40104C21688E1B266049469D
:1042E0004446A1433943596061464B1E1840082398
:1042F000181A85402E003D00B62300215B00D650E1
:104300000C3BD5500433D5500433D150C0BCB94612
:10431000B046F0BD705B0020D06B00200723190071
:10432000244AF0B5106883B00140400A03400233CC
:104330009B00D31858683F231D001F0002318B00DB
:10434000D3185E68054031040C0C090E074224D0D6
:104350000F2101408C4610216046091A2000884038
:10436000674601002000F8400143E020400010585B
:104370000F048540390C01910F490868451B300C2A
:10438000019E0004304358606346581E0F231840B6
:10439000C4400D6025023400390EB6235B00D550B1
:1043A0000C3BD15000210433D4500433D15003B01E
:1043B000F0BDC046705B0020D06B0020072370B5B5
:1043C0001C001E4A1F2011680C40490A0B40023392
:1043D0009B00D31859683F2308400B40A11C8C4612
:1043E000890051184968451E0C00C4401F2D04D88F
:1043F0002026301A0E0086403443080E002B11D0C0
:10440000E020400010580E4E83403068C31A3360DD
:1044100063469B00D3185C601F232B40D9400B02DE
:104420002100200EB62464001351B0235B00D0504D
:104430000433D15000210433D15070BD705B002093
:10444000D06B002007210A001E48F0B50368C6465D
:104450001A40023292009046804442465268FF263B
:104460001500082435402F005B0A013B0B40013347
:104470001940641AE7403C002F008F403900214367
:10448000E02494461A00640004590F4FA2403C688F
:1044900000B5A41A3C60644642463140B4430C4324
:1044A000546002006132FF3251601160B6229D40BB
:1044B0005200B423855000225B00C25080BCB84635
:1044C000F0BDC046705B0020D06B002007231A00AF
:1044D0001849F0B50868202402400232400A9200D0
:1044E0008A18013803405068E02605000133E41AB9
:1044F0001F00E54176008E592C00B7403E00546005
:10450000B0220D4D52002F68BE1B2E60250E8D501F
:1045100004328C504D3AFF3AD21A1300D040B622E2
:10452000203BDB17034052008B50B42300225B007A
:10453000CA50F0BD705B0020D06B00200720010046
:10454000F0B53F26254AC6461368FF2519405B0A89
:10455000034002339B00D3185C68330000B523404E
:1045600002319C468B00D318596882B00091A8464E
:10457000294026421CD0060026400196E0266746C8
:1045800076009659164DB7402E68F61B2E602042D5
:104590001DD00800019C009DA04084460820001BFF
:1045A000C140604601434046014085430D435D6084
:1045B000B62360465B00D0500C3BD1500433D15041
:1045C00000210433D15002B080BCB846F0BD802336
:1045D00008025B0018408446EAE7C046705B002092
:1045E000D06B002007231900254AF0B5106883B06E
:1045F0000140400A03403F20040002339B00D318CF
:1046000002315D688B00D3185E682C4031040F0CBA
:10461000BC46090E28421FD0303828400190E020C7
:1046200040001058174F84403868001B0F24386032
:104630002C421ED06446102101988440091A60461D
:10464000C84020430004010C8C466546310C090427
:1046500029435960240A010EB6235B00D4500C3B59
:10466000D15061460433D15000210433D15003B0FE
:10467000F0BD63461C0280235B001C40ECE7C04693
:10468000705B0020D06B00200723F0B51C00244A8B
:1046900011680C40490A0B4002339B00D31858683C
:1046A0003F211F23A61C03400140B00010184068A2
:1046B0005D1E04009C401F2D0ED8202720257F4220
:1046C000BC46ED1AAC446746FF17BC460700EF40F6
:1046D0003D0067463D402C43050E002914D0114D86
:1046E0005B42AC46E0256D005559A94065462D68F2
:1046F000691A65462960B10051184C601F210B40B2
:10470000D84001022000250EB6235B00D1500021C5
:104710000C3BD5500433D0500433D150F0BDC046CB
:10472000705B0020D06B0020072318001C4AF0B5F6
:104730001168AE250840490A013902300B4081005A
:104740008C469444614680246D0048685159640049
:104750002140013C26000640314309260F00013369
:10476000F61AB740E026D940760096593943B3404F
:104770000C4F51513E68A043F31A3B60B6235B00D7
:10478000D1500B006146234018434860B0214900D6
:10479000535004315350B42300215B00D150F0BD7D
:1047A000705B0020D06B0020072318001D4970B5F6
:1047B0000A68AE2410400230520A80000818013AFC
:1047C000134042688025944664000A596D02120223
:1047D0002A4065462D042D0C2A431125160001336D
:1047E000ED1AAE40E025DA406D004D593243AB4042
:1047F0000D4E3568EB1A3360130A0B5110340B5110
:10480000634612041B0C140C1B0423434360B023A7
:10481000120E5B00CA5000220433CC500433CA503D
:1048200070BDC046705B0020D06B00200721F0B542
:10483000AE220E002C4B520018689C580640400ACD
:104840000138E0270140E405B01C4D1CC646E20FCC
:104850008046840028007F00DF59244EB8400700BE
:1048600030681C19C71B00B5646837601F3925D430
:104870001600CE4021211700491BEF400D00203DBE
:104880002AD42200AA408C403A4334431202210E1B
:104890005118AE225200995010329950424692005F
:1048A0009A185460FF22114061329950002104325D
:1048B0009C500432995080BCB846F0BD20211000B5
:1048C000491B8840212126001700491BEE40EF407C
:1048D0000D008619203DD4D5202520006D1AE84012
:1048E0008A408218CFE7C046705B0020D06B002062
:1048F000F8B507231D002A4CCE46226847461540CE
:10490000520A134002339B00E3185B683F221900F0
:1049100011400800AE2180B5FF270235AD004900E7
:10492000651961586E688946374013420ED1B62327
:104930005B00E150B02300225B00E6500433E750F7
:104940000433E250C0BCB946B046F8BD09218046E8
:104950002CF0B0F980234A465B001A40130009226C
:104960003B431F00521A9740CB403A001A43E023C2
:1049700041465B00E3580B4899400B000168FF2754
:10498000CB1A0360AE235B00E25010331740E250B5
:104990003300FF2293433B433E006B60CAE7C046AF
:1049A000705B0020D06B0020F8B507231D002B4C56
:1049B000CE46226847461540520A134002339B00F8
:1049C000E3185B683F22190011400800AE21023550
:1049D000AD0065196E68490080B567583104090C4F
:1049E0008946134210D1B6235B00E750360AB02344
:1049F0004A465B00E6500433E25000220433E250A2
:104A0000C0BCB946B046F8BD112180462CF052F921
:104A100080233F025B021F404B461F4311233A0095
:104A20005B1A9A40CF40E023174342465B00E358AD
:104A30000B489A400168360C8B1AAE22B621520000
:104A400003603B0AA35049003A0463503604130C38
:104A50001E436E609946160EC9E7C046705B002083
:104A6000D06B00200723F0B51D00374CC6462268E6
:104A700000B51540520A134002339B00E3185968F1
:104A80003F220B0013409846AE2302355B00E658E8
:104A9000AB00E3185F6811420FD1B6235B00E6500C
:104AA0003B0EB0225200A350B22300225B00E7501D
:104AB0000433E25080BCB846F0BD212140462CF0C2
:104AC000F9F80B00F605F60F203B27D43000320032
:104AD000D8402123CA40591A0B009446203B2CD4BD
:104AE0003E009E40E0238F4041465B00E358624613
:104AF00099400B0007431548324301681202CB1A54
:104B000003603B0ED318AE225200A350AD0010320A
:104B1000A35065196D3A6F601340C2E7202332003D
:104B200038005B1A9A40C840212310183200CA404E
:104B3000591A0B009446203BD2D520233A005B1A29
:104B4000DA408E409619CDE7705B0020D06B0020D4
:104B5000072318001D4970B50A68AE2410400230C2
:104B6000520A80000818013A134042688025944692
:104B700064000A596D0212022A4065462D042D0C6C
:104B80002A43112516000133ED1AEE40E0259A4024
:104B90006D004D593243AB400D4E3568EB1A336012
:104BA000130A0B5110340B51634612041B0C140CE6
:104BB0001B0423434360B023120E5B00CA50002243
:104BC0000433CC500433CA5070BDC046705B002023
:104BD000D06B00200721F0B50C00AE222C4B520008
:104BE00018680440400A0138014098580234C00552
:104BF000C20FA0001818466826484D1C8446E020C5
:104C00002F0040001858874060460068C01B674668
:104C100038601F3925D4300088400100212037003A
:104C2000401BAF400500BC46203D29D41600EE4095
:104C3000C24067461143AE2237430802390E41187D
:104C40005200995010329950A2009A185760FF22D2
:104C5000114061329950002104329F500432995022
:104C6000F0BD20213000491BC8401100A940411867
:104C700021203700401BAF400500BC46203DD5D564
:104C8000202517002D1AAF40C640BE19D0E7C046F8
:104C9000705B0020D06B0020F8B507231D002A4C64
:104CA000CE46226847461540520A134002339B0005
:104CB000E3185B683F22190011400800AE2180B55F
:104CC000FF270235AD004900651961586E688946B5
:104CD000374013420ED1B6235B00E150B0230022CF
:104CE0005B00E6500433E7500433E250C0BCB946E1
:104CF000B046F8BD092180462BF0DCFF80234A46F0
:104D00005B001A40130009223B431F00521AD74090
:104D10008B403A001A43E02341465B00E3580B48BE
:104D200099400B000168FF27CB1A0360AE235B009C
:104D3000E25010331740E2503300FF2293433B43CD
:104D40003E006B60CAE7C046705B0020D06B00205D
:104D5000F8B507231D002B4CCE4622684746154068
:104D6000520A134002339B00E3185B683F2219008C
:104D700011400800AE210235AD0065196E6849008A
:104D800080B567583104090C8946134210D1B62307
:104D90005B00E750360AB0234A465B00E650043316
:104DA000E25000220433E250C0BCB946B046F8BD20
:104DB000112180462BF07EFF80233F025B021F40C3
:104DC0004B461F4311233A005B1ADA408F40E02321
:104DD000174342465B00E3580B489A400168360C83
:104DE0008B1AAE22B621520003603B0AA350490041
:104DF0003A0463503604130C1E436E609946160E37
:104E0000C9E7C046705B0020D06B00200723F0B5D7
:104E10001D00374CC646226800B51540520A1340A3
:104E200002339B00E31859683F220B001340984659
:104E3000AE2302355B00E658AB00E3185F68114211
:104E40000FD1B6235B00E6503B0EB0225200A350B8
:104E5000B22300225B00E7500433E25080BCB84626
:104E6000F0BD212140462BF025FF0B00F605F60F83
:104E7000203B27D438003A00984021238A40591A11
:104E80000B009446203B2CD43700DF4063461F4381
:104E9000E02342465B00E358CE409A401300154998
:104EA00030430A680602D31AAE220B603B0EF31899
:104EB0005200A350AD001032A35065196D3A6F60D7
:104EC0001340C2E720233A0030005B1ADA408840E2
:104ED000212310183A008A40591A0B009446203BAF
:104EE000D2D5202332005B1A9A40CF40D719CDE7A4
:104EF000705B0020D06B00200722214B70B5186832
:104F0000410A11400240023292009A1855688A1CE8
:104F1000944692009A1854680F2211002A402140AA
:104F2000891AAE2252009A58D205D20F891ACE435E
:104F3000092900D90639F02210002A402040801AA1
:104F400040180022992802D90132A030FF32AE2148
:104F500049005A5010315A50FF250200B4202A400F
:104F6000164040001E500C3904385A501958AC43B2
:104F700011431950614689005B1822435A6070BD85
:104F8000705B00200721054A13680B4002339B0029
:104F9000D3185A68F8310A435A607047705B002092
:104FA0000721054A13680B4002339B00D3185A6847
:104FB000F8318A435A607047705B0020072270B551
:104FC000FF2515490868430A1340024092008A18D9
:104FD000D0682A0002339B00CB185C6822409446BC
:104FE0002A0066460240B21AB02676008A510C3674
:104FF0008A51103E8A516646604056403040B42681
:10500000284076008851B2202A40AC434000144327
:105010000A505C6070BDC046705B00200723F0B58D
:10502000B02716497F000A68500A18400230134022
:105030009B008000CB180818DE6844683304220403
:10504000120C1B0CD31A1D0ACD510C37CD515A40EE
:10505000103FCD511500320062402A40B4251204A1
:105060006D00120E4A511A04B223120C5B00CA5092
:10507000230C1B0413434360F0BDC046705B00204B
:105080000723F0B5174CB02722687F00510A19405A
:105090001340220002310833890061189B000C3252
:1050A000D658486833040204120C1B0CD31A1D0A8C
:1050B000E5510C37E5515A40103FE55115003200DB
:1050C00042402A40B42512046D00120E62511A04A7
:1050D000B223120C5B00E250030C1B0413434B6021
:1050E000F0BDC046705B002010B50C240722A4461A
:1050F000084908688C44430A1340024008330232CE
:1051000092009B00634489180422895E1A68521A2F
:105110001A6010BD705B00200722084908680C3136
:10512000430A1340083302409B0008325B18920088
:10513000895E1A68521A1A607047C046705B002078
:1051400010B50C240722A446074908688C44430A7A
:1051500013400833024092009B0063448918C968D9
:105160001A68521A1A6010BD705B002007231900DC
:10517000F0B5144CFF262268B0201140520A013AC3
:10518000023113408A009446A444624655683200B6
:1051900001332A40D11A53404A401A40B423370001
:1051A0005B00E2502B006246400021500F4004306B
:1051B0002750B343083021503B43103821505360EF
:1051C000F0BDC046705B00200723F0B5FF251A49EB
:1051D0002E000868C646420A1A4003409B00CB18BE
:1051E000D8682B00023292008A1854680340264087
:1051F000F31A1F00AE235B009846CB586040DB05D6
:10520000DB0FFB1AB0275E403040B4267F0000B5AC
:10521000CB510C37CB514746284076008851043E8D
:105220008859CB51AC432B4018431C4388515460E0
:1052300080BCB846F0BDC046705B002007231C4907
:10524000F0B50A68C646500A1840023013409B0069
:105250008000CB1808184468DA68250413042D0C64
:105260001B0CEF1AAE235B009846CB586240DB055F
:10527000DB0FFB1A1F0A3E00B0275D402A40B42511
:105280007F0000B5CE510C37CE5147461204120EA6
:105290006D004A51043D1A044B59120C13434B51F3
:1052A000230C1B041343CE51436080BCB846F0BDB1
:1052B000705B00200721F0B5AE25184A6D0010681C
:1052C000430A0B40014089009B0050595118D318E4
:1052D000CC68D968C0050E1BC00F301A060E370007
:1052E000B02676009751260006438E43370006000D
:1052F00026403E43F60DB4464C4041402140B42484
:10530000B6266746090E64001151043C1159760017
:105310000143975157511151D860F0BD705B002087
:105320000721B2200A4A30B5136840000B4002330F
:105330009B00D3181C7900251450002459680438A8
:1053400011506932FF3230C280221143596030BDA2
:10535000705B0020F8B5164CB027A36825689A1C2E
:10536000A260C2225200A0582D05184037F0F8FD67
:105370006D0F0235AB00E3185D687F002A04120C44
:10538000111848404A400240B420120A40002250FE
:10539000B6220E0A520009042D0CA650090C103A30
:1053A0002D04A6500D430832E6515D60A150F8BDB2
:1053B000705B002070B5164DB026AB682C689A1C47
:1053C000AA60C2225200A8582405640F1840023473
:1053D00037F0C6FDA300EB185A68FF2114000840FF
:1053E0000C4094462218504054400440B4204000E1
:1053F0002C5004302A50760010382A50AA51083018
:105400000A402A506046884302435A6070BDC04635
:10541000705B002010B5104CA3689A1CA260C222D9
:105420005200A058184037F09BFD23680B4A1B051B
:105430005B0F9B00E3181043DA680240DA60230038
:10544000FF2061331040FF331860586000220023B2
:105450006934FF340CC410BD705B002000FFFFFFF7
:1054600070B5154CB025A3686D009A1CA260C222CD
:105470005200A058184037F073FDFF22844623687D
:1054800010001B055B0F9B00E318D96863461600EC
:1054900008401340C31A63511E40043566516546E7
:1054A0005840694001400A40B42149006250B62288
:1054B0005200A35070BDC046705B002070B5184DFF
:1054C000AB682C689A1CAA60C2225200A858240516
:1054D000640F1840023437F043FDA300FF2422007C
:1054E000EB1859680A409446220066460240B21AF8
:1054F000B0267600AA510C36AA51103EAA51664633
:10550000484056403040B42620407600A851B22092
:105510002240A143400011432A50596070BDC0464B
:10552000705B002010B5104CA3689A1CA260C222C8
:105530005200A058184037F013FDFF222368104096
:105540001B055B0F9B00E318D9680843D860230054
:1055500061330240FF331A605A600022002369342D
:10556000FF340CC410BDC046705B002010B5104C59
:10557000A3689A1CA260C2225200A058184037F0BB
:10558000EFFCFF21236808401B055B0F02339B00E3
:10559000E3185A688A4302435A6023006133FF3399
:1055A00018605860002200236934FF340CC410BD19
:1055B000705B0020AE23F0B5274C5B00E2584D3BFA
:1055C0001209FF3B1340B0225200A158B426593AA9
:1055D0000909FF3A0A40134302227600A159B22773
:1055E00089090A401343B62201215200C64690465B
:1055F000A2587F00120A0A401343E25900B55142F3
:105600004A41920013431D00A3689A1CA260C22263
:105610005200A058184037F0A3FCFF231840684000
:10562000030180221900AE25520011406D00615126
:10563000802104350B4063514307603DFF3DDB0F84
:105640006B40E35183011940434600021040A151D1
:10565000E05080BCB846F0BD705B0020072270B5FA
:105660000D4DAB682C6814409A1CAA60C2225200EF
:10567000A8580234184037F073FC1F23012103405F
:105680009940B220A3000C00EB185A684000144067
:105690004A402C505A6070BD705B0020072270B5E4
:1056A000154DB026AB682C68760014409A1CAA6091
:1056B000C2225200A8580234184037F051FCA3000F
:1056C000EB185A68FF21140008400C409446221839
:1056D000504054400440B42040002C5004302A5024
:1056E00010382A50AA5108300A402A506046884390
:1056F00002435A6070BDC046705B0020F8B50723B6
:10570000174CB22725687F001D40A36802359A1CFC
:10571000A260C2225200A058184037F021FCAB0012
:10572000FF252900E3185A6811408C462900664677
:105730000140711AB0267600A1512E000E40E651AC
:105740000837E151103FE151674650407940084029
:10575000B421AA4328403243490060505A60F8BD42
:10576000705B0020F8B5AE231025234CB0225B00FF
:10577000E35852001B091D400823A258B427120900
:1057800013401D43B62602230121B2207F00E259B7
:105790007600920913401D43A35940001B0A0B4099
:1057A0001D4323585A4253419B001D43A3689A1C32
:1057B000A260C2225200A058184037F0D1FB284006
:1057C000030180221900AE25520011406D00615185
:1057D000802104350B4063514307603DFF3DDB0FE3
:1057E0006B406435FF35635183010002194010405E
:1057F000E151A051F8BDC046705B002010B50C4CC3
:10580000A3689A1CA260C2225200A058184037F028
:10581000A7FB072123685B0A0B409B00E318DA68AB
:1058200001230A4093401840B2235B00E05010BDB2
:10583000705B0020AE23F0B5274C5B00E2584D3B77
:105840001209FF3B1340B0225200A158B426593A26
:105850000909FF3A0A40134302227600A159B227F0
:1058600089090A401343B62201215200C6469046D8
:10587000A2587F00120A0A401343E25900B5514270
:105880004A41920013431D00A3689A1CA260C222E1
:105890005200A058184037F063FBFF2318402843FC
:1058A000030180221900AE25520011406D006151A4
:1058B000802104350B4063514307603DFF3DDB0F02
:1058C0006B40E35183011940434600021040A1514F
:1058D000E05080BCB846F0BD705B002010B5104CA5
:1058E000A3689A1CA260C2225200A058184037F048
:1058F00037FB0722236813409B00E318D968F8326E
:1059000010400843D860230061330240FF331A601F
:105910005A60002200236934FF340CC410BDC04615
:10592000705B0020F8B51D4EB36837689A1CB260F2
:10593000C2225200B0583F05184037F011FB05B2A3
:105940007F0F002D28D02B00002200240120010011
:105950001940914207D002345B0806D00100424052
:1059600019409142F7D15B08F1D10D4A0237136813
:105970001B1B1360BB00F31804215A5E00216A430D
:105980005A60B2235B00F250100E043BF05000202E
:105990006936FF3603C6F8BD0024E6E7705B0020D9
:1059A000D06B002070B5174CA36825689A1CA260C4
:1059B000C2225200A0582D0518406D0F37F0D0FAC2
:1059C00000281DD00300002101221A40520089182E
:1059D0005B08F9D10C4A023513685B1A1360AB00FF
:1059E000E3189A8850435860B2235B00E050000EE1
:1059F000043BE050002200236934FF340CC470BD26
:105A00000021E7E7705B0020D06B002010B5114C3F
:105A1000A3689A1CA260C2225200A058184037F016
:105A20009FFA23680C4A1B055B0F9B00E318024397
:105A3000D8681040D860B2230004020C5B00E2502A
:105A4000000E043BE050002200236934FF340CC4F4
:105A500010BDC046705B00200000FFFF70B5164C03
:105A6000A3689A1CA260C2225200A058184037F0C6
:105A700077FA210023680C311B055B0F08339B006C
:105A8000CD58B02102B2AB1A180E49006050043153
:105A9000635010002900684059400140B420090EAD
:105AA0004000215010001843A84313401843B62368
:105AB000C00D5B00E05070BD705B002070B5144CF1
:105AC000A3689A1CA260C2225200A058184037F066
:105AD00047FA23681B055B0F9B00E3189B891A1A82
